{
  "contractName": "OLVoteSys",
  "abi": [
    {
      "constant": true,
      "inputs": [
        {
          "internalType": "uint256",
          "name": "",
          "type": "uint256"
        }
      ],
      "name": "allCandidates",
      "outputs": [
        {
          "internalType": "string",
          "name": "name",
          "type": "string"
        },
        {
          "internalType": "string",
          "name": "represent",
          "type": "string"
        },
        {
          "internalType": "uint256",
          "name": "age",
          "type": "uint256"
        },
        {
          "internalType": "uint256",
          "name": "noOfVotes",
          "type": "uint256"
        }
      ],
      "payable": false,
      "stateMutability": "view",
      "type": "function"
    },
    {
      "constant": true,
      "inputs": [
        {
          "internalType": "uint256",
          "name": "",
          "type": "uint256"
        }
      ],
      "name": "voters",
      "outputs": [
        {
          "internalType": "address",
          "name": "",
          "type": "address"
        }
      ],
      "payable": false,
      "stateMutability": "view",
      "type": "function"
    },
    {
      "constant": false,
      "inputs": [
        {
          "internalType": "string",
          "name": "_name",
          "type": "string"
        },
        {
          "internalType": "string",
          "name": "_represent",
          "type": "string"
        },
        {
          "internalType": "uint256",
          "name": "_age",
          "type": "uint256"
        }
      ],
      "name": "registerCandidate",
      "outputs": [],
      "payable": false,
      "stateMutability": "nonpayable",
      "type": "function"
    },
    {
      "constant": false,
      "inputs": [
        {
          "internalType": "address",
          "name": "_voterAddress",
          "type": "address"
        }
      ],
      "name": "registerVoter",
      "outputs": [
        {
          "internalType": "uint256",
          "name": "",
          "type": "uint256"
        }
      ],
      "payable": false,
      "stateMutability": "nonpayable",
      "type": "function"
    },
    {
      "constant": false,
      "inputs": [
        {
          "internalType": "uint256",
          "name": "to",
          "type": "uint256"
        }
      ],
      "name": "vote",
      "outputs": [],
      "payable": false,
      "stateMutability": "nonpayable",
      "type": "function"
    },
    {
      "constant": true,
      "inputs": [
        {
          "internalType": "uint256",
          "name": "i",
          "type": "uint256"
        }
      ],
      "name": "getResultTillNow",
      "outputs": [
        {
          "internalType": "uint256",
          "name": "",
          "type": "uint256"
        }
      ],
      "payable": false,
      "stateMutability": "view",
      "type": "function"
    },
    {
      "constant": true,
      "inputs": [],
      "name": "getNoOfCandidates",
      "outputs": [
        {
          "internalType": "uint256",
          "name": "",
          "type": "uint256"
        }
      ],
      "payable": false,
      "stateMutability": "view",
      "type": "function"
    },
    {
      "constant": true,
      "inputs": [],
      "name": "getNoOfVoters",
      "outputs": [
        {
          "internalType": "uint256",
          "name": "",
          "type": "uint256"
        }
      ],
      "payable": false,
      "stateMutability": "view",
      "type": "function"
    },
    {
      "constant": true,
      "inputs": [
        {
          "internalType": "uint256",
          "name": "id",
          "type": "uint256"
        }
      ],
      "name": "getVoterAddress",
      "outputs": [
        {
          "internalType": "address",
          "name": "",
          "type": "address"
        }
      ],
      "payable": false,
      "stateMutability": "view",
      "type": "function"
    },
    {
      "constant": true,
      "inputs": [
        {
          "internalType": "uint256",
          "name": "id",
          "type": "uint256"
        }
      ],
      "name": "showCandidate",
      "outputs": [
        {
          "components": [
            {
              "internalType": "string",
              "name": "name",
              "type": "string"
            },
            {
              "internalType": "string",
              "name": "represent",
              "type": "string"
            },
            {
              "internalType": "uint256",
              "name": "age",
              "type": "uint256"
            },
            {
              "internalType": "uint256",
              "name": "noOfVotes",
              "type": "uint256"
            }
          ],
          "internalType": "struct OLVoteSys.Candidate",
          "name": "",
          "type": "tuple"
        }
      ],
      "payable": false,
      "stateMutability": "view",
      "type": "function"
    }
  ],
  "bytecode": "0x60806040526000600255600060035534801561001a57600080fd5b50610c558061002a6000396000f3fe608060405234801561001057600080fd5b506004361061009e5760003560e01c8063d83b2c0511610066578063d83b2c0514610159578063da58c7d914610189578063ea3707fa146101b9578063f3b12f60146101d7578063fc60c8b3146102075761009e565b80630121b93f146100a3578063164fc142146100bf57806338db6dd3146100dd5780638b2c041d1461010d5780638baf519b1461013d575b600080fd5b6100bd60048036036100b891908101906108f2565b61023a565b005b6100c7610262565b6040516100d49190610ab4565b60405180910390f35b6100f760048036036100f2919081019061084a565b61026c565b6040516101049190610ab4565b60405180910390f35b610127600480360361012291908101906108f2565b6102da565b6040516101349190610a92565b60405180910390f35b61015760048036036101529190810190610873565b61045e565b005b610173600480360361016e91908101906108f2565b610506565b6040516101809190610a24565b60405180910390f35b6101a3600480360361019e91908101906108f2565b610543565b6040516101b09190610a24565b60405180910390f35b6101c1610576565b6040516101ce9190610ab4565b60405180910390f35b6101f160048036036101ec91908101906108f2565b610580565b6040516101fe9190610ab4565b60405180910390f35b610221600480360361021c91908101906108f2565b61059f565b6040516102319493929190610a3f565b60405180910390f35b6000808281526020019081526020016000206003016000815480929190600101919050555050565b6000600354905090565b600081600160006003600081548092919060010191905055815260200190815260200160002060006101000a81548173ffffffffffffffffffffffffffffffffffffffff021916908373ffffffffffffffffffffffffffffffffffffffff1602179055506003549050919050565b6102e26106ff565b600080838152602001908152602001600020604051806080016040529081600082018054600181600116156101000203166002900480601f0160208091040260200160405190810160405280929190818152602001828054600181600116156101000203166002900480156103985780601f1061036d57610100808354040283529160200191610398565b820191906000526020600020905b81548152906001019060200180831161037b57829003601f168201915b50505050508152602001600182018054600181600116156101000203166002900480601f01602080910402602001604051908101604052809291908181526020018280546001816001161561010002031660029004801561043a5780601f1061040f5761010080835404028352916020019161043a565b820191906000526020600020905b81548152906001019060200180831161041d57829003601f168201915b50505050508152602001600282015481526020016003820154815250509050919050565b8260008060025481526020019081526020016000206000019080519060200190610489929190610727565b5081600080600254815260200190815260200160002060010190805190602001906104b5929190610727565b50806000806002548152602001908152602001600020600201819055506000806000600254815260200190815260200160002060030181905550600260008154809291906001019190505550505050565b60006001600083815260200190815260200160002060009054906101000a900473ffffffffffffffffffffffffffffffffffffffff169050919050565b60016020528060005260406000206000915054906101000a900473ffffffffffffffffffffffffffffffffffffffff1681565b6000600254905090565b6000806000838152602001908152602001600020600301549050919050565b6000602052806000526040600020600091509050806000018054600181600116156101000203166002900480601f01602080910402602001604051908101604052809291908181526020018280546001816001161561010002031660029004801561064b5780601f106106205761010080835404028352916020019161064b565b820191906000526020600020905b81548152906001019060200180831161062e57829003601f168201915b505050505090806001018054600181600116156101000203166002900480601f0160208091040260200160405190810160405280929190818152602001828054600181600116156101000203166002900480156106e95780601f106106be576101008083540402835291602001916106e9565b820191906000526020600020905b8154815290600101906020018083116106cc57829003601f168201915b5050505050908060020154908060030154905084565b6040518060800160405280606081526020016060815260200160008152602001600081525090565b828054600181600116156101000203166002900490600052602060002090601f016020900481019282601f1061076857805160ff1916838001178555610796565b82800160010185558215610796579182015b8281111561079557825182559160200191906001019061077a565b5b5090506107a391906107a7565b5090565b6107c991905b808211156107c55760008160009055506001016107ad565b5090565b90565b6000813590506107db81610be4565b92915050565b600082601f8301126107f257600080fd5b813561080561080082610afc565b610acf565b9150808252602083016020830185838301111561082157600080fd5b61082c838284610b91565b50505092915050565b60008135905061084481610bfb565b92915050565b60006020828403121561085c57600080fd5b600061086a848285016107cc565b91505092915050565b60008060006060848603121561088857600080fd5b600084013567ffffffffffffffff8111156108a257600080fd5b6108ae868287016107e1565b935050602084013567ffffffffffffffff8111156108cb57600080fd5b6108d7868287016107e1565b92505060406108e886828701610835565b9150509250925092565b60006020828403121561090457600080fd5b600061091284828501610835565b91505092915050565b61092481610b55565b82525050565b600061093582610b28565b61093f8185610b33565b935061094f818560208601610ba0565b61095881610bd3565b840191505092915050565b600061096e82610b28565b6109788185610b44565b9350610988818560208601610ba0565b61099181610bd3565b840191505092915050565b600060808301600083015184820360008601526109b9828261092a565b915050602083015184820360208601526109d3828261092a565b91505060408301516109e86040860182610a06565b5060608301516109fb6060860182610a06565b508091505092915050565b610a0f81610b87565b82525050565b610a1e81610b87565b82525050565b6000602082019050610a39600083018461091b565b92915050565b60006080820190508181036000830152610a598187610963565b90508181036020830152610a6d8186610963565b9050610a7c6040830185610a15565b610a896060830184610a15565b95945050505050565b60006020820190508181036000830152610aac818461099c565b905092915050565b6000602082019050610ac96000830184610a15565b92915050565b6000604051905081810181811067ffffffffffffffff82111715610af257600080fd5b8060405250919050565b600067ffffffffffffffff821115610b1357600080fd5b601f19601f8301169050602081019050919050565b600081519050919050565b600082825260208201905092915050565b600082825260208201905092915050565b6000610b6082610b67565b9050919050565b600073ffffffffffffffffffffffffffffffffffffffff82169050919050565b6000819050919050565b82818337600083830152505050565b60005b83811015610bbe578082015181840152602081019050610ba3565b83811115610bcd576000848401525b50505050565b6000601f19601f8301169050919050565b610bed81610b55565b8114610bf857600080fd5b50565b610c0481610b87565b8114610c0f57600080fd5b5056fea365627a7a72315820c1468841957efe9e6ce128aa76591711743b3fece2cef3d16e111344493e7d2b6c6578706572696d656e74616cf564736f6c63430005100040",
  "source": "pragma solidity >=0.4.25;\npragma experimental ABIEncoderV2;\n\n\ncontract OLVoteSys {\n    // Global Variables\n\n    struct Candidate {\n        string name;\n        string represent;\n        uint256 age;\n        uint256 noOfVotes;\n    }\n\n    mapping(uint256 => Candidate) public allCandidates;\n    mapping(uint256 => address) public voters;\n\n    uint256 noOfCandidates = 0;\n    uint256 noOfVoters = 0;\n\n    // Methods\n\n    function registerCandidate(\n        string memory _name,\n        string memory _represent,\n        uint256 _age\n    ) public {\n        allCandidates[noOfCandidates].name = _name;\n        allCandidates[noOfCandidates].represent = _represent;\n        allCandidates[noOfCandidates].age = _age;\n        allCandidates[noOfCandidates].noOfVotes = 0;\n        noOfCandidates++;\n    }\n\n    function registerVoter(address _voterAddress) public returns (uint256) {\n        voters[noOfVoters++] = _voterAddress;\n        return noOfVoters;\n    }\n\n    function vote(uint256 to) public {\n        allCandidates[to].noOfVotes++;\n    }\n\n    function getResultTillNow(uint256 i) public view returns (uint256) {\n        return allCandidates[i].noOfVotes;\n    }\n\n    function getNoOfCandidates() public view returns (uint256) {\n        return noOfCandidates;\n    }\n\n    function getNoOfVoters() public view returns (uint256) {\n        return noOfVoters;\n    }\n\n    function getVoterAddress(uint id) public view returns (address) {\n        return voters[id];\n    }\n\n    function showCandidate(uint id) public view returns (Candidate memory) {\n        return allCandidates[id];\n    }\n}\n\n\ncontract Voter {\n    address consensus;\n    string name;\n    string IDProof;\n    uint256 age;\n    bool hasVoted;\n    int votedTo = -1;\n\n    mapping(uint256 => address) public allVoters;\n    uint256 noOfVoters = 0;\n\n    constructor(\n        address _OLVoteSys,\n        string memory _name,\n        string memory _IDProof,\n        uint256 _age\n    ) public {\n        consensus = _OLVoteSys;\n        name = _name;\n        IDProof = _IDProof;\n        age = _age;\n        hasVoted = false;\n    }\n\n    function vote(int to) public {\n        votedTo = to;\n        hasVoted = true;\n    }\n\n    function isEligible() public view returns (bool) {\n        if (age <= 18) {\n            return false;\n        } else if (hasVoted == true) {\n            return false;\n        } else {\n            return true;\n        }\n    }\n\n    function getVoterDetails() public view returns (string memory, string memory, uint, int) {\n        return (name, IDProof, age, votedTo);\n    }\n}\n",
  "sourcePath": "/home/badminton-bhivpa/Work/internship/OLVoteSys/contracts/OLVoteSys.sol",
  "compiler": {
    "name": "solc",
    "version": "0.5.16+commit.9c3226ce.Emscripten.clang"
  },
  "schemaVersion": "3.1.0",
  "updatedAt": "2020-05-05T12:16:42.776Z",
  "networkType": "ethereum",
  "devdoc": {
    "methods": {}
  },
  "userdoc": {
    "methods": {}
  }
}