{
  "contractName": "Voter",
  "abi": [
    {
      "inputs": [
        {
          "internalType": "address",
          "name": "_OLVoteSys",
          "type": "address"
        },
        {
          "internalType": "string",
          "name": "_name",
          "type": "string"
        },
        {
          "internalType": "string",
          "name": "_IDProof",
          "type": "string"
        },
        {
          "internalType": "uint256",
          "name": "_age",
          "type": "uint256"
        }
      ],
      "payable": false,
      "stateMutability": "nonpayable",
      "type": "constructor"
    },
    {
      "constant": true,
      "inputs": [
        {
          "internalType": "uint256",
          "name": "",
          "type": "uint256"
        }
      ],
      "name": "allVoters",
      "outputs": [
        {
          "internalType": "address",
          "name": "",
          "type": "address"
        }
      ],
      "payable": false,
      "stateMutability": "view",
      "type": "function"
    },
    {
      "constant": false,
      "inputs": [
        {
          "internalType": "int256",
          "name": "to",
          "type": "int256"
        }
      ],
      "name": "vote",
      "outputs": [],
      "payable": false,
      "stateMutability": "nonpayable",
      "type": "function"
    },
    {
      "constant": true,
      "inputs": [],
      "name": "isEligible",
      "outputs": [
        {
          "internalType": "bool",
          "name": "",
          "type": "bool"
        }
      ],
      "payable": false,
      "stateMutability": "view",
      "type": "function"
    },
    {
      "constant": true,
      "inputs": [],
      "name": "getVoterDetails",
      "outputs": [
        {
          "internalType": "string",
          "name": "",
          "type": "string"
        },
        {
          "internalType": "string",
          "name": "",
          "type": "string"
        },
        {
          "internalType": "uint256",
          "name": "",
          "type": "uint256"
        },
        {
          "internalType": "int256",
          "name": "",
          "type": "int256"
        }
      ],
      "payable": false,
      "stateMutability": "view",
      "type": "function"
    }
  ],
  "bytecode": "0x60806040527fffffffffffffffffffffffffffffffffffffffffffffffffffffffffffffffff60055560006007553480156200003a57600080fd5b506040516200095138038062000951833981810160405262000060919081019062000237565b836000806101000a81548173ffffffffffffffffffffffffffffffffffffffff021916908373ffffffffffffffffffffffffffffffffffffffff1602179055508260019080519060200190620000b8929190620000fe565b508160029080519060200190620000d1929190620000fe565b50806003819055506000600460006101000a81548160ff02191690831515021790555050505050620003d8565b828054600181600116156101000203166002900490600052602060002090601f016020900481019282601f106200014157805160ff191683800117855562000172565b8280016001018555821562000172579182015b828111156200017157825182559160200191906001019062000154565b5b50905062000181919062000185565b5090565b620001aa91905b80821115620001a65760008160009055506001016200018c565b5090565b90565b600081519050620001be81620003a4565b92915050565b600082601f830112620001d657600080fd5b8151620001ed620001e78262000303565b620002d5565b915080825260208301602083018583830111156200020a57600080fd5b620002178382846200036e565b50505092915050565b6000815190506200023181620003be565b92915050565b600080600080608085870312156200024e57600080fd5b60006200025e87828801620001ad565b945050602085015167ffffffffffffffff8111156200027c57600080fd5b6200028a87828801620001c4565b935050604085015167ffffffffffffffff811115620002a857600080fd5b620002b687828801620001c4565b9250506060620002c98782880162000220565b91505092959194509250565b6000604051905081810181811067ffffffffffffffff82111715620002f957600080fd5b8060405250919050565b600067ffffffffffffffff8211156200031b57600080fd5b601f19601f8301169050602081019050919050565b60006200033d8262000344565b9050919050565b600073ffffffffffffffffffffffffffffffffffffffff82169050919050565b6000819050919050565b60005b838110156200038e57808201518184015260208101905062000371565b838111156200039e576000848401525b50505050565b620003af8162000330565b8114620003bb57600080fd5b50565b620003c98162000364565b8114620003d557600080fd5b50565b61056980620003e86000396000f3fe608060405234801561001057600080fd5b506004361061004c5760003560e01c80633891c3201461005157806343e1ca491461006d5780637d24c2101461008b57806385650674146100ac575b600080fd5b61006b600480360361006691908101906102f6565b6100dc565b005b610075610101565b60405161008291906103d8565b60405180910390f35b610093610143565b6040516100a394939291906103f3565b60405180910390f35b6100c660048036036100c1919081019061031f565b610299565b6040516100d391906103bd565b60405180910390f35b806005819055506001600460006101000a81548160ff02191690831515021790555050565b60006012600354116101165760009050610140565b60011515600460009054906101000a900460ff161515141561013b5760009050610140565b600190505b90565b60608060008060016002600354600554838054600181600116156101000203166002900480601f0160208091040260200160405190810160405280929190818152602001828054600181600116156101000203166002900480156101e85780601f106101bd576101008083540402835291602001916101e8565b820191906000526020600020905b8154815290600101906020018083116101cb57829003601f168201915b50505050509350828054600181600116156101000203166002900480601f0160208091040260200160405190810160405280929190818152602001828054600181600116156101000203166002900480156102845780601f1061025957610100808354040283529160200191610284565b820191906000526020600020905b81548152906001019060200180831161026757829003601f168201915b50505050509250935093509350935090919293565b60066020528060005260406000206000915054906101000a900473ffffffffffffffffffffffffffffffffffffffff1681565b6000813590506102db816104f8565b92915050565b6000813590506102f08161050f565b92915050565b60006020828403121561030857600080fd5b6000610316848285016102cc565b91505092915050565b60006020828403121561033157600080fd5b600061033f848285016102e1565b91505092915050565b61035181610462565b82525050565b61036081610474565b82525050565b61036f81610480565b82525050565b600061038082610446565b61038a8185610451565b935061039a8185602086016104b4565b6103a3816104e7565b840191505092915050565b6103b7816104aa565b82525050565b60006020820190506103d26000830184610348565b92915050565b60006020820190506103ed6000830184610357565b92915050565b6000608082019050818103600083015261040d8187610375565b905081810360208301526104218186610375565b905061043060408301856103ae565b61043d6060830184610366565b95945050505050565b600081519050919050565b600082825260208201905092915050565b600061046d8261048a565b9050919050565b60008115159050919050565b6000819050919050565b600073ffffffffffffffffffffffffffffffffffffffff82169050919050565b6000819050919050565b60005b838110156104d25780820151818401526020810190506104b7565b838111156104e1576000848401525b50505050565b6000601f19601f8301169050919050565b61050181610480565b811461050c57600080fd5b50565b610518816104aa565b811461052357600080fd5b5056fea365627a7a72315820eda7815df0d946c82e203c82ca16722200c8039f7fb432655a014137185f03596c6578706572696d656e74616cf564736f6c63430005100040",
  "source": "pragma solidity >=0.4.25;\npragma experimental ABIEncoderV2;\n\n\ncontract OLVoteSys {\n    // Global Variables\n\n    struct Candidate {\n        string name;\n        string represent;\n        uint256 age;\n        uint256 noOfVotes;\n    }\n\n    mapping(uint256 => Candidate) public allCandidates;\n    mapping(uint256 => address) public voters;\n\n    uint256 noOfCandidates = 0;\n    uint256 noOfVoters = 0;\n\n    // Methods\n\n    function registerCandidate(\n        string memory _name,\n        string memory _represent,\n        uint256 _age\n    ) public {\n        allCandidates[noOfCandidates].name = _name;\n        allCandidates[noOfCandidates].represent = _represent;\n        allCandidates[noOfCandidates].age = _age;\n        allCandidates[noOfCandidates].noOfVotes = 0;\n        noOfCandidates++;\n    }\n\n    function registerVoter(address _voterAddress) public returns (uint256) {\n        voters[noOfVoters++] = _voterAddress;\n        return noOfVoters;\n    }\n\n    function vote(uint256 to) public {\n        allCandidates[to].noOfVotes++;\n    }\n\n    function getResultTillNow(uint256 i) public view returns (uint256) {\n        return allCandidates[i].noOfVotes;\n    }\n\n    function getNoOfCandidates() public view returns (uint256) {\n        return noOfCandidates;\n    }\n\n    function getNoOfVoters() public view returns (uint256) {\n        return noOfVoters;\n    }\n\n    function getVoterAddress(uint id) public view returns (address) {\n        return voters[id];\n    }\n\n    function showCandidate(uint id) public view returns (Candidate memory) {\n        return allCandidates[id];\n    }\n}\n\n\ncontract Voter {\n    address consensus;\n    string name;\n    string IDProof;\n    uint256 age;\n    bool hasVoted;\n    int votedTo = -1;\n\n    mapping(uint256 => address) public allVoters;\n    uint256 noOfVoters = 0;\n\n    constructor(\n        address _OLVoteSys,\n        string memory _name,\n        string memory _IDProof,\n        uint256 _age\n    ) public {\n        consensus = _OLVoteSys;\n        name = _name;\n        IDProof = _IDProof;\n        age = _age;\n        hasVoted = false;\n    }\n\n    function vote(int to) public {\n        votedTo = to;\n        hasVoted = true;\n    }\n\n    function isEligible() public view returns (bool) {\n        if (age <= 18) {\n            return false;\n        } else if (hasVoted == true) {\n            return false;\n        } else {\n            return true;\n        }\n    }\n\n    function getVoterDetails() public view returns (string memory, string memory, uint, int) {\n        return (name, IDProof, age, votedTo);\n    }\n}\n",
  "sourcePath": "/home/badminton-bhivpa/Work/internship/OLVoteSys/contracts/OLVoteSys.sol",
  "compiler": {
    "name": "solc",
    "version": "0.5.16+commit.9c3226ce.Emscripten.clang"
  },
  "schemaVersion": "3.1.0",
  "updatedAt": "2020-05-05T12:10:13.588Z",
  "devdoc": {
    "methods": {}
  },
  "userdoc": {
    "methods": {}
  }
}